:020000040800F2
:100000000000032041240008DD230008DF2300084E
:10001000E1230008E3230008E523000800000000B6
:10002000000000000000000000000000F11C0008BB
:10003000E723000800000000911D0008E9230008E4
:1000400091240008912400089124000891240008BC
:1000500091240008912400089124000891240008AC
:10006000912400089124000891240008912400089C
:10007000912400089124000891240008912400088C
:10008000912400089124000891240008912400087C
:10009000912400089124000891240008912400086C
:1000A000912400089124000891240008912400085C
:1000B000912400089124000891240008912400084C
:1000C000912400089124000891240008912400083C
:1000D000912400089124000891240008912400082C
:1000E000912400089124000891240008912400081C
:1000F000912400089124000891240008912400080C
:1001000091240008912400089124000891240008FB
:1001100091240008912400089124000891240008EB
:1001200091240008912400089124000891240008DB
:1001300091240008912400089124000891240008CB
:1001400091240008912400089124000891240008BB
:1001500091240008912400089124000891240008AB
:10016000912400089124000891240008912400089B
:100170009124000891240008912400080000000048
:10018000912400089124000891240008912400087B
:10019000912400089124000891240008912400086B
:0C01A0009124000891240008912400081C
:1001B00010B5054C237833B9044B13B10448AFF3A1
:1001C00000800123237010BD1000002000000000FB
:1001D000F42400080C4B43B10C480D4910B5AFF3A3
:1001E00000800C48036823B910BD0A48036833B97E
:1001F0007047094B002BF7D0BDE810401847064B5D
:10020000002BF5D0184700BF00000000F4240008C0
:1002100014000020100000200000000053B94AB96B
:10022000002908BF00281CBF4FF0FF314FF0FF30FE
:1002300000F07AB9ADF1080C6DE904CE00F006F8D3
:10024000DDF804E0DDE9022304B070472DE9F04752
:100250008C460D460446089E002B51D18A42174613
:100260006DD9B2FA82FEBEF1000F0BD0CEF1200C98
:1002700001FA0EF520FA0CFC02FA0EF74CEA050C16
:1002800000FA0EF44FEA174A250CBCFBFAF81FFAE5
:1002900087F90AFB18CC45EA0C4508FB09F3AB4289
:1002A0000AD9ED1908F1FF3280F02381AB4240F208
:1002B0002081A8F102083D44ED1AA4B2B5FBFAF082
:1002C0000AFB105544EA054400FB09F9A14509D988
:1002D000E41900F1FF3380F00A81A14540F2078163
:1002E00002383C44A4EB090440EA08400021002EF7
:1002F00061D024FA0EF4002334607360BDE8F08707
:100300008B4207D9002E54D0002186E821000846F0
:10031000BDE8F087B3FA83F1002940F08E80AB424C
:1003200002D3824200F2FA80841A65EB03050120B1
:10033000AC46002E3FD086E81010BDE8F08712B919
:100340000127B7FBF2F7B7FA87FEBEF1000F34D1F1
:10035000EB1B3A0C1FFA87FC0121B3FBF2F8250CCA
:1003600002FB183345EA03450CFB08F3AB4207D9FF
:10037000ED1908F1FF3002D2AB4200F2D180804685
:10038000ED1AA3B2B5FBF2F002FB105543EA0544A7
:100390000CFB00FCA44507D9E41900F1FF3302D29D
:1003A000A44500F2B8801846A4EB0C0440EA0840CB
:1003B0009DE731463046BDE8F087CEF1200405FACE
:1003C0000EF307FA0EF720FA04F83A0C25FA04F4B3
:1003D00048EA0308B4FBF2F14FEA184502FB114466
:1003E0001FFA87FC45EA044501FB0CF3AB4200FA17
:1003F0000EF409D9ED1901F1FF3080F08A80AB428B
:1004000040F2878002393D44EB1A1FFA88F5B3FBAE
:10041000F2F002FB103345EA034500FB0CF3AB425C
:1004200007D9ED1900F1FF386FD2AB426DD9023810
:100430003D44EB1A40EA01418FE7C1F1200722FA5F
:1004400007F88B4005FA01F448EA030320FA07FE97
:100450004FEA134CFD404EEA040EB5FBFCF94FEA9F
:100460001E440CFB19551FFA83F844EA054509FBA5
:1004700008F4AC4202FA01F200FA01FA08D9ED18C8
:1004800009F1FF3043D2AC4241D9A9F102091D4420
:100490002D1B1FFA8EFEB5FBFCF00CFB10554EEA2F
:1004A000054400FB08F8A04507D9E41800F1FF3522
:1004B00029D2A04527D902381C4440EA0940A4EBC0
:1004C0000804A0FB02894C45C6464D4615D312D000
:1004D00056B1BAEB0E0364EB050404FA07F7CB4000
:1004E0001F43CC40376074600021BDE8F087184698
:1004F000F8E69046E0E6C245EAD2B8EB020E69EBB8
:1005000003050138E4E72846D7E7404691E78146EE
:10051000BEE7014678E702383C4445E7084608E76D
:10052000A8F102083D442BE7704700BF10B5044610
:100530000E4B18784FF47A73B3FBF0F30C4A106843
:10054000B0FBF3F000F086F868B90F2C01D9012058
:1005500010BD002221464FF0FF3000F049F8034B58
:100560005C60002010BD012010BD00BF0000002015
:100570000C00002008B50B4B1A6842F400721A6098
:100580001A6842F480621A601A6842F480721A6033
:10059000032000F01BF80F20FFF7C8FF01F0D4FE86
:1005A000002008BD003C0240034A1168034B1B7841
:1005B0000B441360704700BFB43D002000000020D2
:1005C000014B1868704700BFB43D0020074AD3684C
:1005D00023F4E0631B041B0C000200F4E0601843EA
:1005E00040F0BF6040F40030D060704700ED00E0A4
:1005F00030B4164BDB68C3F30223C3F10704042CA9
:1006000028BF04241D1D062D17D9033B012505FA1B
:1006100004F4013C2140994005FA03F3013B1340E7
:10062000194300280BDB0901C9B200F1604000F555
:10063000614080F8001330BC70470023E6E700F00B
:100640000F000901C9B2024B1954F4E700ED00E0B4
:1006500014ED00E00138B0F1807F0AD2064B5860FB
:10066000F021064A82F823100020986007221A60C1
:1006700070470120704700BF10E000E000ED00E08F
:10068000042805D0054A136823F00403136070475B
:10069000024A136843F004031360704710E000E05F
:1006A00010B582B000230193194B1A6C42F08052AE
:1006B0001A641B6C03F080530193019B0122154BBC
:1006C0001A60FFF77DFF0446134B5B6813F4803F0D
:1006D00008D1FFF775FF001BB0F57A7FF4D903202E
:1006E00002B010BD01220D4B1A60FFF769FF0446EE
:1006F000094B5B6813F4003F07D1FFF761FF001B54
:10070000B0F57A7FF4D90320EAE70020E8E700BFDC
:100710000038024040000E420070004044000E428B
:10072000002800F0BB8170B582B00446036813F066
:10073000010F3BD0A74B9B6803F00C03042B2CD07C
:10074000A44B9B6803F00C03082B21D06368B3F51E
:10075000803F4FD0B3F5A02F52D09E4B1A6822F4A1
:1007600080321A601A6822F480221A606368002BB3
:1007700050D0FFF725FF0546964B1B6813F4003F4A
:1007800014D1FFF71DFF401B6428F5D903208AE12F
:10079000904B5B6813F4800FD8D08E4B1B6813F41A
:1007A000003F03D06368002B00F07A81236813F0C8
:1007B000020F55D0874B9B6813F00C0F3ED0854B32
:1007C0009B6803F00C03082B33D0E368002B68D040
:1007D0000122814B1A60FFF7F3FE05467D4B1B6833
:1007E00013F0020F54D1FFF7EBFE401B0228F5D99E
:1007F000032058E1774A136843F480331360B5E768
:10080000744B1A6842F480221A601A6842F48032EB
:100810001A60ABE7FFF7D4FE05466E4B1B6813F476
:10082000003FC3D0FFF7CCFE401B6428F5D903205E
:1008300039E1684B5B6813F4800FC6D1654B1B68C8
:1008400013F0020F04D0E368012B01D001202AE14C
:10085000604A136823F0F803216943EAC103136077
:10086000236813F0080F40D0636963B301225B4B28
:100870001A60FFF7A5FE0546564B5B6F13F0020F9B
:1008800033D1FFF79DFE401B0228F5D903200AE172
:10089000504A136823F0F803216943EAC103136047
:1008A000DEE700224C4B1A60FFF78AFE0546494BF3
:1008B0001B6813F0020FD3D0FFF782FE401B022803
:1008C000F5D90320EFE00022444B1A60FFF778FED1
:1008D0000546404B5B6F13F0020F06D0FFF770FE2A
:1008E000401B0228F5D90320DDE0236813F0040F34
:1008F00079D0384B1B6C13F0805F33D10023019308
:10090000344B1A6C42F080521A641B6C03F0805313
:100910000193019B0125324B1B6813F4807F23D088
:10092000A368012B34D0052B38D02A4B1A6F22F044
:1009300001021A671A6F22F004021A67A368002BDB
:1009400036D0FFF73DFE0646224B1B6F13F0020F19
:1009500048D1FFF735FE801B41F288339842F3D926
:100960000320A0E00025D6E71D4A136843F48073F6
:100970001360FFF725FE0646194B1B6813F4807FB2
:10098000CED1FFF71DFE801B0228F5D903208AE097
:10099000104A136F43F001031367CFE70D4B1A6F33
:1009A00042F004021A671A6F42F001021A67C5E7A3
:1009B000FFF706FE0646074B1B6F13F0020F11D020
:1009C000FFF7FEFD801B41F288339842F3D90320E4
:1009D00069E000BF0038024000004742800E4742F5
:1009E00000700040E5B9A369002B5BD0304A9268E3
:1009F00002F00C02082A58D0022B17D000222D4BEF
:100A00001A60FFF7DDFD0446294B1B6813F0007FD9
:100A100042D0FFF7D5FD001B0228F5D9032042E0A4
:100A2000234A136C23F080531364DCE70022214B2C
:100A30001A60FFF7C5FD05461D4B1B6813F0007FCC
:100A400006D0FFF7BDFD401B0228F5D903202AE0A0
:100A5000E369226A1343626A43EA8213A26A520874
:100A6000013A43EA0243E26A43EA0263104A5360EE
:100A70000122104B1A60FFF7A3FD04460C4B1B68C4
:100A800013F0007F06D1FFF79BFD001B0228F5D96C
:100A9000032008E0002006E0002004E00120704769
:100AA000012000E0002002B070BD0120FBE700BF84
:100AB0000038024060004742F8B5314B9B6803F0B4
:100AC0000C03042B59D0082B01D02E48F8BD2C4B19
:100AD0005A6802F03F025B6813F4800F2AD0284B5B
:100AE0005B68C3F388131E4600275C010025E41AE7
:100AF00065EB0705A90141EA9461A001001B61EBC8
:100B00000501CB0043EA5073C400A01943EB070171
:100B10004B0243EAD0534402204619460023FFF714
:100B20007DFB174B5B68C3F3014301335B00B0FBF4
:100B3000F3F0F8BD124B5B68C3F388131E46002721
:100B40005C010025E41A65EB0705A90141EA9461FF
:100B5000A001001B61EB0501CB0043EA5073C40008
:100B6000A01943EB07018B0243EA9053840220460D
:100B700019460023FFF752FBD3E70348F8BD00BF37
:100B8000003802400024F40000127A00002800F02F
:100B90009D8070B504464F4B1B6803F00F038B42DA
:100BA00009D2CBB24B4A1370136803F00F0399427A
:100BB00001D0012070BD236813F0020F17D013F08D
:100BC000040F04D0444A936843F4E05393602368CD
:100BD00013F0080F04D0404A936843F460439360D5
:100BE0003D4A936823F0F003A068034393600D46E9
:100BF000236813F0010F32D06368012B21D09A1EB5
:100C0000012A25D9344A126812F0020F60D0324905
:100C10008A6822F0030213438B60FFF7D1FC06467B
:100C20002D4B9B6803F00C036268B3EB820F16D068
:100C3000FFF7C6FC801B41F288339842F0D90320AD
:100C400070BD254A126812F4003FE0D1012070BD4A
:100C5000214A126812F0007FD9D1012070BD1D4BCE
:100C60001B6803F00F039D4209D2EAB2194B1A70B8
:100C70001B6803F00F039D4201D0012070BD236863
:100C800013F0040F06D0144A936823F4E053E1688C
:100C90000B439360236813F0080F07D00E4A936844
:100CA00023F46043216943EAC1039360FFF704FF23
:100CB000094B9B68C3F30313084AD35CD840084B25
:100CC00018600F20FFF732FC002070BD0120704734
:100CD000012070BD003C0240003802400C25000895
:100CE0000C000020014B1868704700BF0C0000206A
:100CF00008B500F0D9FE012801D001F07BF808BD4D
:100D000000F1080343604FF0FF328260C36003616B
:100D100000230360704700230361704743684B6002
:100D20009A688A609A685160996008610368013323
:100D30000360704730B40D68B5F1FF3F02D000F199
:100D4000080202E0026904E01A4653681C68A542E2
:100D5000FAD253684B6099608A60516008610368F9
:100D60000133036030BC7047036942688168916059
:100D70008268416851605A68904205D00022026141
:100D8000186801381860704782685A60F6E710B535
:100D9000044600F0BFFFA26BE36B9A4204D000242C
:100DA00000F0DAFF204610BD0124F9E710B5044633
:100DB00000F0B0FFA36B23B1002400F0CDFF20466C
:100DC00010BD0124F9E770B504461646856B026C28
:100DD0004AB9036853BB406800F0CEFE002363604D
:100DE0000135A56370BD6EB9806801F077FB226C98
:100DF000A3681344A3606268934219D32368A36075
:100E00000020EDE7C06801F069FB236C5B42E268FB
:100E10001A44E26021688A4202D262681344E360A5
:100E2000022E07D145B1013D0020D9E70020D7E7C8
:100E30000020D5E70020D3E70020D1E7026C72B193
:100E400010B50346C4681444C4604068844201D3AA
:100E50001868D8600846D96801F040FB10BD70479B
:100E600038B5054600F056FF95F8454064B201E0FC
:100E7000013C64B2002C0ADD6B6A43B105F1240029
:100E800000F074FD0028F3D000F006FEF0E7FF2329
:100E900085F8453000F060FF00F03CFF95F84440D5
:100EA00064B201E0013C64B2002C0ADD2B6943B15D
:100EB00005F1100000F05AFD0028F3D000F0ECFD21
:100EC000F0E7FF2385F8443000F046FF38BD00000E
:100ED00038B530B304460D4600F01CFF2168E26BC4
:100EE000236C03FB021060600020A063A160013A44
:100EF00002FB0313E360FF2384F8443084F8453099
:100F0000C5B92369F3B104F1100000F02FFDC8B199
:100F10004FF080520D4B1A60BFF34F8FBFF36F8FAE
:100F200010E04FF0500383F31188BFF36F8FBFF3CE
:100F30004F8FFEE704F11000FFF7E2FE04F12400FA
:100F4000FFF7DEFE00F008FF012038BD04ED00E0F1
:100F500010B5029B0C4639B11A60D8631C6401219C
:100F60001846FFF7B5FF10BD1B60F6E740B94FF01C
:100F7000500383F31188BFF36F8FBFF34F8FFEE7EA
:100F8000F0B583B0054611B101FB00F000E0002090
:100F900017460C46483001F025F8064638B1009057
:100FA0003B4600F1480221462846FFF7D1FF304674
:100FB00003B0F0BDF0B585B0019260B1044699B1BF
:100FC0000125BDB94FF0500383F31188BFF36F8F34
:100FD000BFF34F8FFEE74FF0500383F31188BFF349
:100FE0006F8FBFF34F8FFEE7026C0AB90125E8E768
:100FF0000025E6E7022B09D06DB94FF0500383F3CB
:101000001188BFF36F8FBFF34F8FFEE7E26B012AAA
:10101000F2D00025F0E71E460F4600F045FD10B95E
:10102000019B03B1002545B94FF0500383F31188AC
:10103000BFF36F8FBFF34F8FFEE700252CE03246E2
:1010400039462046FFF7BFFE636A8BB104F12400E6
:1010500000F08CFC38B14FF08052374B1A60BFF370
:101060004F8FBFF36F8F00F077FE012005B0F0BD0A
:101070000028F8D04FF080522F4B1A60BFF34F8FEB
:10108000BFF36F8FEFE700F067FE0020EEE720462A
:10109000FFF7E6FE00F050FB00F03CFEA26BE36BB6
:1010A0009A42CCD3022ECAD0019B002BEBD01DB9A3
:1010B00002A800F09DFC012500F04EFE00F0A8FA09
:1010C00000F028FE94F844305BB2B3F1FF3F02D148
:1010D000002384F8443094F845305BB2B3F1FF3F0D
:1010E00002D1002384F8453000F036FE01A902A8A1
:1010F00000F092FCC8B92046FFF749FE0028C6D090
:10110000019904F1100000F017FC2046FFF7A8FE3B
:1011100000F012FB0028BFD14FF08052064B1A603E
:10112000BFF34F8FBFF36F8FB6E72046FFF798FEF0
:1011300000F002FB002099E704ED00E02DE9F0410A
:1011400084B0019260B1044699B10125BDB94FF058
:10115000500383F31188BFF36F8FBFF34F8FFEE708
:101160004FF0500383F31188BFF36F8FBFF34F8F9E
:10117000FEE7026C0AB90125E8E70025E6E71F460D
:10118000884600F091FC10B9019B03B1002545B9D8
:101190004FF0500383F31188BFF36F8FBFF34F8F6E
:1011A000FEE700265DE0E66841462046FFF746FE82
:1011B000DFB9013DA563236813B900F039FD606014
:1011C000236963B104F1100000F0D0FB38B14FF097
:1011D0008052454B1A60BFF34F8FBFF36F8F00F003
:1011E000BBFD012004B0BDE8F081E660636A002B1E
:1011F000F5D004F1240000F0B9FB0028EFD04FF047
:101200008052394B1A60BFF34F8FBFF36F8FE6E701
:1012100000F0A2FD0020E5E702A800F0E9FB0126AE
:1012200029E0002384F8443031E0002384F845307D
:1012300033E000F06FFD606800F046FC00F08CFDCC
:101240003BE02046FFF70CFE00F076FA09E020466E
:10125000FFF706FE00F070FA2046FFF7A7FD002812
:1012600040D100F057FDA56B002D9CD1019B002BB8
:10127000CED0002ED0D000F06FFD00F0C9F900F004
:1012800049FD94F844305BB2B3F1FF3FC9D094F804
:1012900045305BB2B3F1FF3FC7D000F05DFD01A95F
:1012A00002A800F0B9FB0028D1D12046FFF77EFD4F
:1012B0000028C6D02368002BBBD0019904F124007C
:1012C00000F03AFB2046FFF7CBFD00F035FA00288E
:1012D000C7D14FF08052044B1A60BFF34F8FBFF35A
:1012E0006F8FBEE700207DE704ED00E0094B9B6AAD
:1012F0001B6843B9012343B9064B9A6AD268D26886
:101300005268DA6270470023F5E74FF0FF32014B75
:10131000DA6270472C00002010B50446006B00F024
:10132000E7FE204600F0E4FE10BD2DE9F0478046C0
:101330009946089D099F0A9C266B02F18042013A5A
:1013400006EB820626F0070600230F2B07D8C85CA1
:10135000E21882F83400CA5C0AB10133F5E70023D1
:1013600084F84330062D00D90625E56265644FF008
:10137000000AC4F848A0201DFFF7CDFC04F11800B6
:10138000FFF7C9FC2461C5F10705A5616462C4F8D3
:101390004CA084F850A04A464146304600F08CFCF0
:1013A000206007B13C60BDE8F087000070B5002404
:1013B00007E004EB8402930010481844FFF7A0FCF8
:1013C0000134062CF5D90E4C04F1BC063046FFF76B
:1013D00097FC04F1D0052846FFF792FC04F11400B5
:1013E000FFF78EFC04F1E400FFF78AFC2046FFF7CC
:1013F00087FCA662C4F8F85070BD00BF5C000020F6
:101400002C00002038B5054600F084FC264BD3F8AC
:10141000FC200132C3F8FC20D3F80031002B38D077
:10142000214BD3F804314BB91F4BD3F80031DA6AA2
:10143000EB6A9A4202D81C4BC3F800511A4CD4F8FC
:1014400008310133C4F80831EB6A01229A40D4F81C
:101450000C110A43C4F80C2104F1300003EB8303A0
:101460009A00291D1044FFF759FC00F075FCD4F8D0
:1014700004316BB1D4F80031DA6AEB6A9A4207D2D0
:101480004FF08052094B1A60BFF34F8FBFF36F8F3D
:1014900038BD054BC3F80051D3F8FC30012BCDD13A
:1014A000FFF784FFCAE700BF2C00002004ED00E036
:1014B00070B504460E461F4BD3F81051D3F8000107
:1014C0000430FFF751FC60B91A4BD3F80021D16A00
:1014D000012202FA01F1D3F80C2122EA0102C3F839
:1014E0000C21B4F1FF3F12D02C44124BD3F8003141
:1014F0005C60A54214D80F4DA86AD5F800110431DC
:10150000FFF718FCEB6A9C4200D2EC6270BD002E23
:10151000EAD00848D0F800110431FFF7FFFB70BD96
:10152000044BD3F8F800D3F800110431FFF702FCA4
:1015300070BD00BF2C0000202DE9F04385B00646A9
:101540000F4615469846900000F04CFD00B38146CA
:10155000542000F047FD0446B0B1C0F83090CCB143
:101560000023039302940D9B01930C9B009343462D
:101570002A4639463046FFF7D8FE2046FFF742FF9D
:10158000012005B0BDE8F083484600F0B1FDE6E774
:101590000024E4E74FF0FF30F3E7000000B583B02C
:1015A000174B019300230093802216491648FFF73A
:1015B000C3FF012805D0B0F1FF3F17D003B05DF89D
:1015C00004FB4FF0500383F31188BFF36F8FBFF319
:1015D0004F8F0E4B4FF0FF32DA620122C3F8042125
:1015E0000022C3F8102100F031FCE7E74FF0500370
:1015F00083F31188BFF36F8FBFF34F8FFEE700BFF8
:101600004801002024250008811800082C00002033
:10161000034AD2F818310133C2F81831704700BFBD
:101620002C0000202DE9F041424BD3F81831002B5B
:1016300070D1404BD3F810510135C3F81051CDB9DA
:101640009B6A1B6843B14FF0500383F31188BFF3CB
:101650006F8FBFF34F8FFEE7364B9A6AD3F8F810BF
:101660009962C3F8F820D3F820210132C3F8202171
:10167000FFF73CFE2F4BDB6A9D423FD200242D4AF0
:10168000D2F80031DB6A03EB830399000A44136B41
:10169000012B46D9012444E00124264B9B6A1B6898
:1016A00073B3002373BB234B9B6ADB68DE687368EC
:1016B0009D422CD306F104084046FFF755FBB36A60
:1016C0001BB106F11800FFF74FFBF36A01229A40A5
:1016D000184FD7F80C110A43C7F80C2107F1300056
:1016E00003EB83039A0041461044FFF717FBF26AAD
:1016F000D7F80031DB6A9A42CED2CEE70024CCE79D
:101700000123CFE74FF0FF320A4BDA62B7E7094A0D
:10171000D362B4E7074AD2F824310133C2F8243146
:101720000024044BD3F8283103B101242046BDE83E
:10173000F08100BF2C0000203A4BD3F8183143B998
:101740004FF0500383F31188BFF36F8FBFF34F8FB8
:10175000FEE770B500F0DEFA324BD3F81821013AFB
:10176000C3F81821D3F81831002B57D12D4BD3F8DB
:10177000FC3023B9002400F0EFFA204670BD0024AD
:10178000284B5B692BB3274D2B6ADC6804F11800EA
:10179000FFF7EAFA261D3046FFF7E6FAE36A012270
:1017A0009A40D5F80C110A43C5F80C2105F1300018
:1017B00003EB83039A0031461044FFF7AFFAE26A65
:1017C000D5F80031DB6A9A42DAD30122C5F8282124
:1017D000D6E70CB1FFF78AFD124BD3F824417CB950
:1017E000104BD3F82831DBB14FF080520E4B1A600A
:1017F000BFF34F8FBFF36F8F0124BCE7013C08D0CC
:10180000FFF710FF0028F9D00122064BC3F828216A
:10181000F4E70022034BC3F82421E1E70024AAE700
:101820000024A8E72C00002004ED00E038B5134B9D
:10183000D3F814310BB3FFF7EBFE104BD3F8E440B1
:10184000FFF77AFF002CF2D000F064FA0B4CD4F8CA
:10185000F030DD68281DFFF787FAD4F8FC30013B33
:10186000C4F8FC30D4F81431013BC4F8143100F052
:1018700073FA2846FFF750FDD9E738BD2C00002049
:1018800008B5FFF7D3FF064B1B6B012BF9D94FF0BF
:101890008052044B1A60BFF34F8FBFF36F8FF0E796
:1018A0002C00002004ED00E0224BD3F81831CBB916
:1018B000204A0023C2F82831D2F80C31B3FA83F35E
:1018C000DBB2C3F11F0303EB830081000A44126BF8
:1018D0006AB94FF0500383F31188BFF36F8FBFF3E2
:1018E0004F8FFEE70122134BC3F82821704710B435
:1018F000104A9900CC18A0001044446B64684463FB
:1019000030321944880001460830024494420BD01A
:10191000084903EB83039A000A44536BDB68C1F860
:1019200000315DF8044B70476068024A0A44506316
:10193000EEE700BF2C00002040B94FF0500383F3C6
:101940001188BFF36F8FBFF34F8FFEE710B50C46C2
:10195000054BD3F800111831FFF7ECF901212046AF
:10196000FFF7A6FD10BD00BF2C00002038B5C368EE
:10197000DC684CB304F118052846FFF7F5F91A4B5B
:10198000D3F818314BBB251D2846FFF7EDF9E36A64
:1019900001219940144AD2F80C010143C2F80C11FC
:1019A000303203EB8303980029461044FFF7B6F961
:1019B000E26A0D4BD3F80031DB6A9A4212D901205A
:1019C000094BC3F8280138BD4FF0500383F3118849
:1019D000BFF36F8FBFF34F8FFEE729460348FFF732
:1019E0009DF9E5E7002038BD2C00002040000020D4
:1019F00038B1084AD2F820110160D2F810214260B3
:101A000070474FF0500383F31188BFF36F8FBFF31C
:101A10004F8FFEE72C00002038B5D0B1044609B343
:101A20000D4600F077F91B4BD3F810112B68B3F17A
:101A3000FF3F2BD02068174AD2F82021904202D0D5
:101A40006268914224D26268881A834213D80124C2
:101A500018E04FF0500383F31188BFF36F8FBFF38B
:101A60004F8FFEE74FF0500383F31188BFF36F8F62
:101A7000BFF34F8FFEE7521A13442B602046FFF747
:101A8000B7FF002400F068F9204638BD0024F9E7CC
:101A90000124F7E72C0000200122024BC3F8282183
:101AA000704700BF2C000020064BD3F804312BB147
:101AB000044BD3F818311BB902207047012070473E
:101AC000002070472C00002000284FD038B5054674
:101AD000C36A2749D1F80011C96A8B4218D28169BB
:101AE000002906DB2249D1F80011C96AC1F10701BA
:101AF0008161686903EB830399001E4B0B44984294
:101B000007D000233BB91A4BD3F80031DB6AEB62F4
:101B100038BD0123F6E72C1D2046FFF725F980B9D3
:101B2000EA6A02EB82039900114B0B441B6B43B929
:101B3000012393400E49D1F80C2122EA0302C1F897
:101B40000C210B48D0F80031DB6AEB6201229A408D
:101B5000D0F80C110A43C0F80C21303003EB83039A
:101B60009A0021461044FFF7D9F838BD704700BFEE
:101B70002C0000205C000020002850D038B504461E
:101B80002A4AD2F80021904208D04FF0500383F344
:101B90001188BFF36F8FBFF34F8FFEE7826C42B99E
:101BA0004FF0500383F31188BFF36F8FBFF34F8F54
:101BB000FEE7013A8264C06A616C884231D092BB10
:101BC000251D2846FFF7D0F888B9E26A02EB8203A8
:101BD0009900164B0B441B6B4BB9012303FA02F21D
:101BE0001249D1F80C3123EA0203C1F80C31636CBD
:101BF000E362C3F10702A261012404FA03F10B4A74
:101C0000D2F80C010143C2F80C11303203EB83030C
:101C1000980029461044FFF781F8204638BD00207F
:101C20007047002038BD002038BD00BF2C000020C8
:101C3000064BD3F800312BB1044BD3F80021936C41
:101C400001339364014BD3F8000170472C0000204E
:101C50000B4B1B68B3F1FF3F08D04FF0500383F3E9
:101C60001188BFF36F8FBFF34F8FFEE74FF0500324
:101C700083F31188BFF36F8FBFF34F8FFEE700BF71
:101C80000800002006480068006880F3088862B6F3
:101C900061B6BFF34F8FBFF36F8F00DF00BF00004F
:101CA00008ED00E0DFF80C00016841F4700101600C
:101CB0007047000088ED00E04FF0807340F8043C6E
:101CC00021F0010140F8081C054B40F80C3C40F89D
:101CD000202C6FF0020340F8243C4438704700BFCA
:101CE000511C00080000000000000000000000007F
:101CF000074B19680868B0E8F04F80F30988BFF314
:101D00006F8F4FF0000080F311887047AFF30080B1
:101D10002C0100204FF0500383F31188BFF36F8F25
:101D2000BFF34F8F0A4A136801331360012B0DD1A3
:101D3000084B1B6813F0FF0F08D04FF0500383F3DC
:101D40001188BFF36F8FBFF34F8FFEE7704700BF5F
:101D50000800002004ED00E0094B1B6843B94FF078
:101D6000500383F31188BFF36F8FBFF34F8FFEE7EC
:101D7000013B034A13600BB983F31188704700BF1E
:101D8000080000200000000000000000000000002B
:101D9000EFF30980BFF36F8F154B1A681EF0100F19
:101DA00008BF20ED108A20E9F04F10604DF8043D87
:101DB0004FF0500080F31188BFF34F8FBFF36F8F48
:101DC000FFF772FD4FF0000080F3118808BC19681E
:101DD0000868B0E8F04F1EF0100F08BFB0EC108A92
:101DE00080F30988BFF36F8F704700BFAFF30080A7
:101DF0002C01002008B54FF0500383F31188BFF386
:101E00006F8FBFF34F8FFFF70DFC18B14FF080526B
:101E1000024B1A60002383F3118808BD04ED00E033
:101E2000064B1B68064AA2FB03239B09013B054A9C
:101E300013600722044B1A60704700BF0C0000209B
:101E4000D34D621014E000E010E000E0314B1A685E
:101E5000314B9A4219D02F4B1A68304B9A421DD001
:101E600000B583B02E4B1A78D2B20192FF221A70BD
:101E70001B78DBB28DF803309DF8033003F050037C
:101E8000284A1370072353601BE04FF0500383F37D
:101E90001188BFF36F8FBFF34F8FFEE74FF05003F2
:101EA00083F31188BFF36F8FBFF34F8FFEE71D4A97
:101EB0005368013B53609DF803305B00DBB28DF843
:101EC00003309DF8033013F0800FF0D1154A5368AA
:101ED0001B0203F4E0635360019BDBB2104A1370F2
:101EE000114B1A6842F470021A601A6842F070428C
:101EF0001A60FFF795FF00220C4B1A60FFF7D2FE25
:101F00000B4A136843F040431360FFF7BBFEFFF733
:101F10009FFE00BF00ED00E071C20F4170C20F4193
:101F200000E400E05801002020ED00E0080000205F
:101F300034EF00E0134A12F0070F20D0D11D21F03A
:101F40000701C1F5705313440A460F49C1F8182917
:101F50000020C1F81C091344083B23F00703C1F813
:101F6000203958601860981A50601360C1F824092D
:101F7000C1F828094FF00043C1F82C3970474FF4DD
:101F80007053E2E7600100204834002010B4134B86
:101F90001A6882421CD359685C18A04203D1406879
:101FA00001445960184641684418A24214D10C4CAF
:101FB000D4F82049A2420DD05268114441601A68F9
:101FC00012680260984200D018605DF8044B7047B8
:101FD0001346DDE70460F5E70260F3E7603D0020AB
:101FE0004834002070B50446FFF712FB3F4BD3F88E
:101FF0002039C3B13D4BD3F82C391C426CD1ACB164
:10200000083414F0070F11D024F00704083404F04A
:1020100007035BB14FF0500383F31188BFF36F8F59
:10202000BFF34F8FFEE7FFF785FFE3E7002C55D0A6
:102030002E4BD3F828399C4252D82C4BD3F8185940
:1020400003F6181301E02B4615466A68944202D93C
:102050002A68002AF7D1254AD2F82029954241D092
:102060001E6808362A681A606B681B1B102B10D973
:10207000281910F0070F08D04FF0500383F3118890
:10208000BFF36F8FBFF34F8FFEE743606C60FFF7C6
:102090007DFF6968154AD2F828395B1AC2F82839D9
:1020A000D2F82429934202D2104AC2F824390F4BA5
:1020B000D3F82C390B436B6000232B60FFF73CFBFC
:1020C00016F0070F10D04FF0500383F31188BFF3C1
:1020D0006F8FBFF34F8FFEE70026EFE70026EDE797
:1020E0000026EBE70026E9E7304670BD48340020C3
:1020F00098B338B50446A0F1080550F8042C1749E8
:10210000D1F82C190A4208D14FF0500383F31188FB
:10211000BFF36F8FBFF34F8FFEE750F8080C40B14D
:102120004FF0500383F31188BFF36F8FBFF34F8FCE
:10213000FEE722EA010244F8042CFFF769FA54F89A
:10214000041C064AD2F828390B44C2F8283928461C
:10215000FFF71CFFFFF7F0FA38BD70474834002046
:1021600082B000230193064B1A6B42F080021A637F
:102170001B6B03F080030193019B02B0704700BF0B
:102180000038024008B50AE00A490B6841F8043FEC
:1021900000234FF47A7208480068FEF70BFF054AE7
:1021A000136801331360B3F57A7FEDDD0022014B34
:1021B0001A60E9E7783D0020BC3D002008B50DE03D
:1021C00011490869143100234FF47A7201EB800140
:1021D0000E480068FEF7B2FF01280AD00A4AD36809
:1021E0000133D360B3F57A7FEADD0022064BDA6073
:1021F000E6E7054B1B69082B03DC0133024A136138
:10220000ECE70023FAE700BF783D0020BC3D00204A
:10221000FEE7000000B595B0002101912F4B1A6C2C
:1022200042F080521A641B6C03F080530193019BAF
:1022300002912B4B1A6842F440421A601B6803F467
:1022400040430293029B012308934FF48033099388
:1022500002220E924FF480030F9304231093B421B3
:1022600011911292139308A8FEF75AFA38BBFEF7A1
:1022700017FA40BB0F230393022304930023059313
:102280004FF4A05306934FF480530793052103A8FE
:10229000FEF77CFCE0B9FEF725FD124BA3FB0030F6
:1022A0008009FEF7D7F90420FEF7EAF900220F2192
:1022B0004FF0FF30FEF79CF915B05DF804FBFB21F1
:1022C0000948FFF7A5FF4FF481710748FFF7A0FF0A
:1022D0004FF488710448FFF79BFF00BF00380240AD
:1022E00000700040D34D62102C25000800B583B06B
:1022F000FEF740F9FFF78EFFFFF732FF002401944D
:1023000002250095234680220A490B48FFF714F95D
:10231000019400952346802208490948FFF70CF9EB
:10232000224608210A20FEF721FE064B1860FFF71F
:1023300035F9FEE73C250008852100084425000802
:10234000BD210008BC3D002010B582B000240094DF
:10235000214B5A6C42F480425A645A6C02F4804217
:102360000092009A01941A6C42F080521A641B6C1D
:1023700003F080530193019B0320FEF727F92246C7
:1023800021466FF00B00FEF733F9224621466FF02D
:102390000A00FEF72DF9224621466FF00900FEF7EC
:1023A00027F9224621466FF00400FEF721F9224664
:1023B00021466FF00300FEF71BF922460F216FF054
:1023C0000100FEF715F922460F214FF0FF30FEF70E
:1023D0000FF902B010BD00BF003802407047FEE7A1
:1023E000FEE7FEE7FEE7704708B5FEF7DDF8FEF70B
:1023F0007FFC08BD0F49D1F8883043F47003C1F861
:1024000088300D4B1A6842F001021A600020986073
:102410001A6822F0847222F480321A60074A5A60E5
:102420001A6822F480221A60D8604FF000638B6033
:10243000704700BF00ED00E000380240103000247B
:10244000DFF834D0002103E00C4B5B5843500431DB
:102450000B480C4B42189A42F6D30B4A02E0002379
:1024600042F8043B094B9A42F9D3FFF7C3FF00F04F
:1024700011F8FFF73BFF7047000003205C250008C0
:10248000000000201000002010000020C83D0020A7
:10249000FEE7000070B50D4E0D4CA41BA4100025E6
:1024A000A54209D10B4E0C4C00F024F8A41BA4103B
:1024B0000025A54205D170BD56F825309847013555
:1024C000EEE756F8253098470135F2E75425000825
:1024D00054250008542500085825000810B5431E4F
:1024E0000A44914200D110BD11F8014B03F8014F8D
:1024F000F7E70000F8B500BFF8BC08BC9E4670477F
:0C250000F8B500BFF8BC08BC9E46704750
:10250C000000000000000000010203040607080997
:10251C00000000000102030449444C450000000087
:10252C002E2E2F5372632F6D61696E2E6300000087
:10253C007461736B203100007461736B2032000086
:08254C0000DDFF7F010000002B
:04255400D5010008A5
:04255800B1010008C5
:10255C000100000010000000AAAAAAAA0024F4009E
:04000005080024418A
:00000001FF
