:020000040800F2
:1000000000000320F1360008F1350008FF35000834
:10001000053600080B360008113600080000000005
:10002000000000000000000000000000812A00081D
:100030001736000800000000912C00082536000843
:1000400041370008413700084137000841370008B0
:1000500041370008413700084137000841370008A0
:100060004137000841370008413700084137000890
:100070004137000841370008413700084137000880
:100080004137000841370008413700084137000870
:100090004137000841370008413700084137000860
:1000A0004137000841370008413700084137000850
:1000B0004137000841370008413700084137000840
:1000C0004137000841370008413700084137000830
:1000D0004137000841370008413700084137000820
:1000E0004137000841370008413700084137000810
:1000F0004137000841370008413700084137000800
:1001000041370008413700084137000841370008EF
:1001100041370008413700084137000841370008DF
:1001200041370008413700084137000841370008CF
:1001300041370008413700084137000841370008BF
:1001400041370008413700084137000841370008AF
:10015000413700084137000841370008413700089F
:10016000413700084137000841370008413700088F
:1001700041370008413700084137000800000000FF
:10018000413700084137000841370008413700086F
:10019000413700084137000841370008413700085F
:0C01A000413700084137000841370008D3
:1001B00010B5054C237833B9044B13B10448AFF3A1
:1001C00000800123237010BD1000002000000000FB
:1001D000A43700080C4B43B10C480D4910B5AFF3E0
:1001E00000800C48036823B910BD0A48036833B97E
:1001F0007047094B002BF7D0BDE810401847064B5D
:10020000002BF5D0184700BF00000000A4370008FD
:1002100014000020100000200000000053B94AB96B
:10022000002908BF00281CBF4FF0FF314FF0FF30FE
:1002300000F07AB9ADF1080C6DE904CE00F006F8D3
:10024000DDF804E0DDE9022304B070472DE9F04752
:100250008C460D460446089E002B51D18A42174613
:100260006DD9B2FA82FEBEF1000F0BD0CEF1200C98
:1002700001FA0EF520FA0CFC02FA0EF74CEA050C16
:1002800000FA0EF44FEA174A250CBCFBFAF81FFAE5
:1002900087F90AFB18CC45EA0C4508FB09F3AB4289
:1002A0000AD9ED1908F1FF3280F02381AB4240F208
:1002B0002081A8F102083D44ED1AA4B2B5FBFAF082
:1002C0000AFB105544EA054400FB09F9A14509D988
:1002D000E41900F1FF3380F00A81A14540F2078163
:1002E00002383C44A4EB090440EA08400021002EF7
:1002F00061D024FA0EF4002334607360BDE8F08707
:100300008B4207D9002E54D0002186E821000846F0
:10031000BDE8F087B3FA83F1002940F08E80AB424C
:1003200002D3824200F2FA80841A65EB03050120B1
:10033000AC46002E3FD086E81010BDE8F08712B919
:100340000127B7FBF2F7B7FA87FEBEF1000F34D1F1
:10035000EB1B3A0C1FFA87FC0121B3FBF2F8250CCA
:1003600002FB183345EA03450CFB08F3AB4207D9FF
:10037000ED1908F1FF3002D2AB4200F2D180804685
:10038000ED1AA3B2B5FBF2F002FB105543EA0544A7
:100390000CFB00FCA44507D9E41900F1FF3302D29D
:1003A000A44500F2B8801846A4EB0C0440EA0840CB
:1003B0009DE731463046BDE8F087CEF1200405FACE
:1003C0000EF307FA0EF720FA04F83A0C25FA04F4B3
:1003D00048EA0308B4FBF2F14FEA184502FB114466
:1003E0001FFA87FC45EA044501FB0CF3AB4200FA17
:1003F0000EF409D9ED1901F1FF3080F08A80AB428B
:1004000040F2878002393D44EB1A1FFA88F5B3FBAE
:10041000F2F002FB103345EA034500FB0CF3AB425C
:1004200007D9ED1900F1FF386FD2AB426DD9023810
:100430003D44EB1A40EA01418FE7C1F1200722FA5F
:1004400007F88B4005FA01F448EA030320FA07FE97
:100450004FEA134CFD404EEA040EB5FBFCF94FEA9F
:100460001E440CFB19551FFA83F844EA054509FBA5
:1004700008F4AC4202FA01F200FA01FA08D9ED18C8
:1004800009F1FF3043D2AC4241D9A9F102091D4420
:100490002D1B1FFA8EFEB5FBFCF00CFB10554EEA2F
:1004A000054400FB08F8A04507D9E41800F1FF3522
:1004B00029D2A04527D902381C4440EA0940A4EBC0
:1004C0000804A0FB02894C45C6464D4615D312D000
:1004D00056B1BAEB0E0364EB050404FA07F7CB4000
:1004E0001F43CC40376074600021BDE8F087184698
:1004F000F8E69046E0E6C245EAD2B8EB020E69EBB8
:1005000003050138E4E72846D7E7404691E78146EE
:10051000BEE7014678E702383C4445E7084608E76D
:10052000A8F102083D442BE7704700BF80B500AF3B
:100530000E4A0E4B1B6843F4007313600B4A0B4BBF
:100540001B6843F480631360084A084B1B6843F43C
:1005500080731360032000F00BF90F2000F008F8FF
:1005600002F0F4FF0023184680BD00BF003C0240AB
:1005700080B582B000AF7860124B1A68124B1B78BE
:1005800019464FF47A73B3FBF1F3B2FBF3F3184659
:1005900000F015F90346002B01D001230EE07B6823
:1005A0000F2B0AD8002279684FF0FF3000F0EBF8EB
:1005B000064A7B681360002300E0012318460837D1
:1005C000BD4680BD0C00002004000020000000207B
:1005D00080B400AF064B1B781A46064B1B681344C9
:1005E000044A136000BFBD465DF8047B704700BF3E
:1005F00004000020203E002080B400AF034B1B68A5
:100600001846BD465DF8047B704700BF203E0020C1
:1006100080B485B000AF78607B6803F00703FB60AF
:100620000C4BDB68BB60BA684FF6FF031340BB603E
:10063000FB681A02BB68134343F0BF6343F4003303
:10064000BB60044ABB68D36000BF1437BD465DF889
:10065000047B704700ED00E080B400AF044BDB6822
:100660001B0A03F007031846BD465DF8047B70477C
:1006700000ED00E080B483B000AF03463960FB7149
:1006800097F90730002B0BDA0D49FB7903F00F03C4
:10069000043B3A68D2B21201D2B20B441A7609E096
:1006A000084997F907303A68D2B21201D2B20B4426
:1006B00083F8002300BF0C37BD465DF8047B70470C
:1006C00000ED00E000E100E080B489B000AFF86028
:1006D000B9607A60FB6803F00703FB61FB69C3F153
:1006E0000703042B28BF0423BB61FB690433062BDB
:1006F00002D9FB69033B00E000237B610122BB6957
:1007000002FA03F35A1EBB681A407B699A40012122
:100710007B6901FA03F3591E7B680B4013431846AB
:100720002437BD465DF8047B7047000080B582B079
:1007300000AF78607B68013BB3F1807F01D3012378
:100740000FE00A4A7B68013B53600F214FF0FF30F6
:10075000FFF790FF054B00229A60044B07221A60B6
:10076000002318460837BD4680BD00BF10E000E0FA
:1007700080B582B000AF78607868FFF749FF00BFAE
:100780000837BD4680BD80B586B000AF0346B9606E
:100790007A60FB7300237B61FFF75EFF78617A6804
:1007A000B9687869FFF790FF024697F90F30114654
:1007B0001846FFF75FFF00BF1837BD4680BD80B504
:1007C00082B000AF78607868FFF7B0FF0346184644
:1007D0000837BD4680BD000080B483B000AF7860AC
:1007E0007B68042B06D1094A084B1B6843F00403BD
:1007F000136005E0054A054B1B6823F004031360F2
:1008000000BF0C37BD465DF8047B704710E000E088
:1008100080B582B000AF00237B6000233B60204A9C
:100820001F4B1B6C43F0805313641D4B1B6C03F078
:1008300080533B603B681B4B01221A60FFF7DCFED4
:10084000786009E0FFF7D8FE02467B68D31AB3F55B
:100850007A7F01D903231FE0134B5B6803F48033D5
:10086000B3F5803FEED1114B01221A60FFF7C4FEB1
:10087000786009E0FFF7C0FE02467B68D31AB3F543
:100880007A7F01D9032307E0074B5B6803F4003349
:10089000B3F5003FEED1002318460837BD4680BDB2
:1008A0000038024040000E420070004044000E42FA
:1008B00080B586B000AF78607B68002B01D1012342
:1008C0002DE27B681B6803F00103002B75D0A34B5E
:1008D0009B6803F00C03042B0CD0A04B9B6803F027
:1008E0000C03082B12D19D4B5B6803F48003B3F516
:1008F000800F0BD1994B1B6803F40033002B5BD0A6
:100900007B685B68002B57D1012308E27B685B683A
:10091000B3F5803F06D1914A904B1B6843F4803376
:1009200013601DE07B685B68B3F5A02F0CD18B4A88
:100930008A4B1B6843F480231360884A874B1B68EB
:1009400043F4803313600BE0844A844B1B6823F428
:1009500080331360814A814B1B6823F4802313602A
:100960007B685B68002B13D0FFF746FE386108E018
:10097000FFF742FE02463B69D31A642B01D90323D9
:10098000CDE1764B1B6803F40033002BF0D014E06C
:10099000FFF732FE386108E0FFF72EFE02463B69A2
:1009A000D31A642B01D90323B9E16C4B1B6803F400
:1009B0000033002BF0D100E000BF7B681B6803F020
:1009C0000203002B63D0654B9B6803F00C03002BE4
:1009D0000BD0624B9B6803F00C03082B1CD15F4BC0
:1009E0005B6803F48003002B16D15C4B1B6803F09B
:1009F0000203002B05D07B68DB68012B01D00123AB
:100A00008DE15649554B1B6823F0F8027B681B6942
:100A1000DB0013430B603AE07B68DB68002B20D0DF
:100A20004F4B01221A60FFF7E7FD386108E0FFF73E
:100A3000E3FD02463B69D31A022B01D903236EE181
:100A4000464B1B6803F00203002BF0D04349434B95
:100A50001B6823F0F8027B681B69DB0013430B6003
:100A600015E03F4B00221A60FFF7C6FD386108E031
:100A7000FFF7C2FD02463B69D31A022B01D90323BB
:100A80004DE1364B1B6803F00203002BF0D17B686D
:100A90001B6803F00803002B30D07B685B69002BD8
:100AA00016D0304B01221A60FFF7A6FD386108E02E
:100AB000FFF7A2FD02463B69D31A022B01D903239B
:100AC0002DE1264B5B6F03F00203002BF0D015E005
:100AD000244B00221A60FFF78FFD386108E0FFF712
:100AE0008BFD02463B69D31A022B01D9032316E181
:100AF0001A4B5B6F03F00203002BF0D17B681B687D
:100B000003F00403002B00F0A0800023FB75134BBF
:100B10001B6C03F08053002B0FD10023FB600F4AA6
:100B20000E4B1B6C43F0805313640C4B1B6C03F097
:100B30008053FB60FB680123FB750B4B1B6803F4C0
:100B40008073002B21D1084A074B1B6843F4807344
:100B50001360FFF751FD386111E000BF003802401B
:100B600000004742800E474200700040FFF744FDFE
:100B700002463B69D31A022B01D90323CFE06A4B0B
:100B80001B6803F48073002BF0D07B689B68012BFB
:100B900006D1664A654B1B6F43F0010313671CE0E7
:100BA0007B689B68052B0CD1604A604B1B6F43F040
:100BB000040313675D4A5D4B1B6F43F0010313672A
:100BC0000BE05A4A594B1B6F23F001031367574A36
:100BD000564B1B6F23F0040313677B689B68002B45
:100BE00015D0FFF709FD38610AE0FFF705FD024661
:100BF0003B69D31A41F28832934201D903238EE034
:100C00004A4B1B6F03F00203002BEED014E0FFF7FA
:100C1000F3FC38610AE0FFF7EFFC02463B69D31AA8
:100C200041F28832934201D9032378E03F4B1B6F96
:100C300003F00203002BEED1FB7D012B05D13B4AD3
:100C40003A4B1B6C23F0805313647B689B69002B29
:100C500064D0364B9B6803F00C03082B5CD07B6898
:100C60009B69022B41D1324B00221A60FFF7C4FC72
:100C7000386108E0FFF7C0FC02463B69D31A022B3B
:100C800001D903234BE0294B1B6803F00073002BB1
:100C9000F0D126497B68DA697B681B6A1A437B6856
:100CA0005B6A9B011A437B689B6A5B08013B1B04E0
:100CB0001A437B68DB6A1B0613434B601C4B012203
:100CC0001A60FFF799FC386108E0FFF795FC0246CF
:100CD0003B69D31A022B01D9032320E0134B1B6875
:100CE00003F00073002BF0D018E0114B00221A60C3
:100CF000FFF782FC386108E0FFF77EFC02463B69A3
:100D0000D31A022B01D9032309E0084B1B6803F017
:100D10000073002BF0D101E0012300E0002318460E
:100D20001837BD4680BD00BF00700040003802404B
:100D30006000474280B584B000AF786039607B685E
:100D4000002B01D10123CAE0674B1B6803F00F029F
:100D50003B689A420CD2644B3A68D2B21A70624B2A
:100D60001B6803F00F023B689A4201D00123B6E0F2
:100D70007B681B6803F00203002B20D07B681B6894
:100D800003F00403002B05D0584A584B9B6843F4EA
:100D9000E05393607B681B6803F00803002B05D0C9
:100DA000524A524B9B6843F4604393604F494F4B08
:100DB0009B6823F0F0027B689B6813438B607B6821
:100DC0001B6803F00103002B44D07B685B68012B98
:100DD00007D1464B1B6803F40033002B19D10123C4
:100DE0007DE07B685B68022B03D07B685B68032B2C
:100DF00007D13E4B1B6803F00073002B09D1012380
:100E00006DE03A4B1B6803F00203002B01D1012374
:100E100065E03649354B9B6823F003027B685B68CD
:100E200013438B60FFF7E8FBF8600AE0FFF7E4FB91
:100E30000246FB68D31A41F28832934201D9032358
:100E40004DE02A4B9B6803F00C027B685B689B00BB
:100E50009A42EBD1244B1B6803F00F023B689A4285
:100E60000CD9214B3A68D2B21A701F4B1B6803F0A1
:100E70000F023B689A4201D0012330E07B681B6877
:100E800003F00403002B08D01849184B9B6823F487
:100E9000E0527B68DB6813438B607B681B6803F060
:100EA0000803002B09D01149104B9B6823F46042C2
:100EB0007B681B69DB0013438B6000F01DF8014663
:100EC0000A4B9B681B0903F00F03094AD35C21FA04
:100ED00003F3084A13600F20FFF74AFB002318466C
:100EE0001037BD4680BD00BF003C024000380240C4
:100EF000F43700080C0000202DE9F04F8FB000AF50
:100F00000023FB6200237B630023BB6200233B635F
:100F1000624B9B6803F00C03042B07D0082B08D00E
:100F2000002B40F0B2805E4B3B63B1E05D4B3B6316
:100F3000AEE05A4B5B6803F03F03FB62574B5B68C4
:100F400003F48003002B4ED0544B5B689B094FF099
:100F5000000440F2FF114FF0000201EA030102EA2F
:100F600004020B46144660017862786A40EAD36056
:100F700078625B013B62D7E908345B1A64EB0204D8
:100F80004FEA841949EA93694FEA8318B8EB0308DA
:100F900069EB04094FEAC903FB61FB6943EA587333
:100FA000FB614FEAC803BB61D7E9068918EB01086A
:100FB00049EB02094FEA49237B617B6943EAD85335
:100FC0007B614FEA48233B61D7E9048940464946A3
:100FD000FB6A4FF000041A462346FFF71FF9034649
:100FE0000C467B6343E02D4B5B689B094FF000048C
:100FF00040F2FF114FF0000201EA030102EA04028D
:101000000B4614466001F860F86840EAD360F86067
:101010005B01BB60D7E902345B1A64EB0204A601F2
:1010200046EA93669D01ED1A66EB0406F3007B60C9
:101030007B6843EA55737B60EB003B60D7E9005661
:101040006D1846EB02064FEA862B4BEA955B4FEA9A
:10105000852A55465E4628463146FB6A4FF0000415
:101060001A462346FFF7DAF803460C467B630B4B20
:101070005B681B0C03F0030301335B00BB627A6BFC
:10108000BB6AB2FBF3F33B6302E0054B3B6300BF7B
:101090003B6B18463C37BD46BDE8F08F0038024038
:1010A0000024F40000127A0080B400AF034B1B68E8
:1010B0001846BD465DF8047B704700BF0C00002059
:1010C00080B500AF01F0F8FA0346012B01D001F022
:1010D00013FE00BF80BD80B483B000AF78607B6832
:1010E00003F108027B685A607B684FF0FF329A6018
:1010F0007B6803F108027B68DA607B6803F1080211
:101100007B681A617B6800221A6000BF0C37BD46FD
:101110005DF8047B704780B483B000AF78607B6873
:1011200000221A6100BF0C37BD465DF8047B704792
:1011300080B485B000AF786039607B685B68FB6025
:101140003B68FA685A60FB689A683B689A60FB687B
:101150009B683A685A60FB683A689A603B687A68AC
:101160001A617B681B685A1C7B681A6000BF1437C1
:10117000BD465DF8047B704780B485B000AF7860F1
:1011800039603B681B68BB60BB68B3F1FF3F03D1AC
:101190007B681B69FB600CE07B680833FB6002E046
:1011A000FB685B68FB60FB685B681A68BB689A4217
:1011B000F6D9FB685A683B685A603B685B683A68D6
:1011C0009A603B68FA689A60FB683A685A603B68C4
:1011D0007A681A617B681B685A1C7B681A6000BFBA
:1011E0001437BD465DF8047B704780B485B000AF0E
:1011F00078607B681B69FB607B685B687A689268D3
:101200009A607B689B687A6852685A60FB685A6883
:101210007B689A4203D17B689A68FB685A607B6856
:1012200000221A61FB681B685A1EFB681A60FB6883
:101230001B6818461437BD465DF8047B70470000F4
:1012400080B584B000AF786039607B68FB60FB6874
:10125000002B09D14FF0500383F31188BFF36F8F38
:10126000BFF34F8FBB60FEE701F0BAFCFB681A6862
:10127000FB68DB6BF968096C01FB03F31A44FB683C
:101280005A60FB6800229A63FB681A68FB689A60E0
:10129000FB681A68FB68DB6B013BF968096C01FBB2
:1012A00003F31A44FB68DA60FB68FF2283F84420EA
:1012B000FB68FF2283F845203B68002B14D1FB68B4
:1012C0001B69002B1AD0FB681033184601F03AF85E
:1012D0000346002B12D00D4B4FF080521A60BFF323
:1012E0004F8FBFF36F8F09E0FB6810331846FFF78D
:1012F000F2FEFB6824331846FFF7EDFE01F09EFC7A
:10130000012318461037BD4680BD00BF04ED00E044
:1013100080B58AB002AFF860B9601346FB71FB6814
:10132000002B09D14FF0500383F31188BFF36F8F67
:10133000BFF34F8F3B61FEE7BB68002B02D1002358
:10134000FB6104E0FB68BA6802FB03F3FB61FB6925
:101350004833184601F054FDB861BB69002B0BD02F
:10136000BB6948337B61FA79BB69009313467A699C
:10137000B968F86800F005F8BB6918462037BD4623
:1013800080BD80B584B000AFF860B9607A60FB7052
:10139000BB68002B03D1BB69BA691A6002E0BB6964
:1013A0007A681A60BB69FA68DA63BB69BA681A645A
:1013B0000121B869FFF744FF00BF1037BD4680BD6B
:1013C00080B58EB000AFF860B9607A603B600023F2
:1013D0007B63FB683B633B6B002B09D14FF05003F1
:1013E00083F31188BFF36F8FBFF34F8FBB62FEE7AC
:1013F000BB68002B03D13B6B1B6C002B01D101237D
:1014000000E00023002B09D14FF0500383F3118833
:10141000BFF36F8FBFF34F8F7B62FEE73B68022BFA
:1014200003D13B6BDB6B012B01D1012300E00023D7
:10143000002B09D14FF0500383F31188BFF36F8F56
:10144000BFF34F8F3B62FEE701F036F90346002BF6
:1014500002D17B68002B01D1012300E00023002B87
:1014600009D14FF0500383F31188BFF36F8FBFF39F
:101470004F8FFB61FEE701F0B3FB3B6B9A6B3B6B5D
:10148000DB6B9A4202D33B68022B29D13A68B968D8
:10149000386B00F01EFAF8623B6B5B6A002B10D0D1
:1014A0003B6B2433184600F04DFF0346002B13D04E
:1014B0003F4B4FF080521A60BFF34F8FBFF36F8FD7
:1014C0000AE0FB6A002B07D0394B4FF080521A60BC
:1014D000BFF34F8FBFF36F8F01F0B0FB012363E0C9
:1014E0007B68002B03D101F0A9FB00235CE07B6B40
:1014F000002B06D107F11403184600F085FF0123E5
:101500007B6301F09BFB00F039FD01F069FB3B6B55
:1015100093F844305BB2B3F1FF3F03D13B6B002241
:1015200083F844203B6B93F845305BB2B3F1FF3F47
:1015300003D13B6B002283F8452001F07FFB3A1D6D
:1015400007F114031146184600F082FF0346002BF2
:1015500024D1386B00F0B5FA0346002B18D03B6B52
:1015600010337A681146184600F0C8FE386B00F058
:1015700040FA00F011FD0346002B7FF47CAF0C4BCA
:101580004FF080521A60BFF34F8FBFF36F8F72E737
:10159000386B00F02EFA00F0FFFC6CE7386B00F0BF
:1015A00028FA00F0F9FC002318463837BD4680BD04
:1015B00004ED00E080B58EB000AFF860B9607A60ED
:1015C0003B6000237B63FB683B633B6B002B09D1D3
:1015D0004FF0500383F31188BFF36F8FBFF34F8F2A
:1015E0007B62FEE7BB68002B03D13B6B1B6C002BBF
:1015F00001D1012300E00023002B09D14FF050035B
:1016000083F31188BFF36F8FBFF34F8F3B62FEE709
:1016100001F052F80346002B02D17B68002B01D168
:10162000012300E00023002B09D14FF0500383F386
:101630001188BFF36F8FBFF34F8FFB61FEE701F09F
:10164000CFFA3B6B9B6BFB62FB6A002B46D03B6B7C
:10165000DB68BB62B968386B00F0A5F93B68002B0A
:1016600021D1FB6A5A1E3B6B9A633B6B1B68002BB4
:1016700004D101F039F902463B6B5A603B6B1B69A0
:10168000002B27D03B6B1033184600F05BFE03465F
:10169000002B1FD04F4B4FF080521A60BFF34F8F7B
:1016A000BFF36F8F16E03B6BBA6ADA603B6B5B6A25
:1016B000002B0FD03B6B2433184600F043FE03464B
:1016C000002B07D0434B4FF080521A60BFF34F8F6F
:1016D000BFF36F8F01F0B2FA012377E07B68002B34
:1016E00003D101F0ABFA002370E07B6B002B06D135
:1016F00007F11403184600F087FE01237B6301F015
:101700009DFA00F03BFC01F06BFA3B6B93F8443020
:101710005BB2B3F1FF3F03D13B6B002283F844205F
:101720003B6B93F845305BB2B3F1FF3F03D13B6BAA
:10173000002283F8452001F081FA3A1D07F11403D5
:101740001146184600F084FE0346002B31D1386B59
:1017500000F0A1F90346002B25D03B6B1B68002B42
:1017600008D101F03DFA3B6B5B68184600F0C2FF00
:1017700001F064FA3B6B24337A681146184600F096
:10178000BDFD386B00F035F900F006FC0346002B78
:101790007FF455AF0F4B4FF080521A60BFF34F8F5D
:1017A000BFF36F8F4BE7386B00F023F900F0F4FBC9
:1017B00045E7386B00F01DF900F0EEFB386B00F0E8
:1017C0006AF90346002B3FF43AAF00231846383736
:1017D000BD4680BD04ED00E080B58EB000AFF8607E
:1017E000B9607A60FB683B633B6B002B09D14FF01B
:1017F000500383F31188BFF36F8FBFF34F8F3B62AA
:10180000FEE7BB68002B03D13B6B1B6C002B01D1A7
:10181000012300E00023002B09D14FF0500383F394
:101820001188BFF36F8FBFF34F8FFB61FEE701F0AD
:10183000A9FAEFF311824FF0500383F31188BFF33D
:101840006F8FBFF34F8FBA617B61BB69FB623B6BEC
:101850009B6BBB62BB6A002B2FD03B6B93F8443071
:1018600087F82730B968386B00F09DF8BB6A5A1EBC
:101870003B6B9A6397F92730B3F1FF3F12D13B6B73
:101880001B69002B16D03B6B1033184600F05AFD35
:101890000346002B0ED07B68002B0BD07B68012207
:1018A0001A6007E097F827300133DBB25AB23B6B7E
:1018B00083F8442001237B6301E000237B63FB6A00
:1018C0003B613B6983F311887B6B18463837BD4613
:1018D00080BD80B586B000AFF860B9607A60002343
:1018E0007B61FB689B6B3B61FB681B6C002B0DD124
:1018F000FB681B68002B4DD1FB685B68184600F045
:101900006FFF7861FB6800225A6043E07B68002B20
:1019100019D1FB689868FB681B6C1A46B96801F01E
:1019200035FFFB689A68FB681B6C1A44FB689A6079
:10193000FB689A68FB685B689A422BD3FB681A685D
:10194000FB689A6026E0FB68D868FB681B6C1A4647
:10195000B96801F01BFFFB68DA68FB681B6C5B422F
:101960001A44FB68DA60FB68DA68FB681B689A4215
:1019700007D2FB685A68FB681B6C5B421A44FB6821
:10198000DA607B68022B05D13B69002B02D03B69F2
:10199000013B3B613B695A1CFB689A637B691846B3
:1019A0001837BD4680BD80B582B000AF7860396021
:1019B0007B681B6C002B18D07B68DA687B681B6C1B
:1019C0001A447B68DA607B68DA687B685B689A42F5
:1019D00003D37B681A687B68DA607B68D9687B68A8
:1019E0001B6C1A46386801F0D1FE00BF0837BD46AF
:1019F00080BD80B584B000AF786001F0F1F87B68FD
:101A000093F84530FB7311E07B685B6A002B12D0C2
:101A10007B682433184600F095FC0346002B01D068
:101A200000F074FDFB7B013BDBB2FB7397F90F30D9
:101A3000002BE9DC00E000BF7B68FF2283F8452033
:101A400001F0FCF801F0CCF87B6893F84430BB73EC
:101A500011E07B681B69002B12D07B68103318469D
:101A600000F070FC0346002B01D000F04FFDBB7B63
:101A7000013BDBB2BB7397F90E30002BE9DC00E0D1
:101A800000BF7B68FF2283F8442001F0D7F800BF35
:101A90001037BD4680BD80B584B000AF786001F0DE
:101AA0009FF87B689B6B002B02D10123FB6001E058
:101AB0000023FB6001F0C2F8FB6818461037BD46F2
:101AC00080BD80B584B000AF786001F089F87B6894
:101AD0009A6B7B68DB6B9A4202D10123FB6001E0C9
:101AE0000023FB6001F0AAF8FB6818461037BD46DA
:101AF00080BD80B58CB004AFF860B9603B60134620
:101B0000FB80FB889B00184601F07AF978617B69BD
:101B1000002B0ED0542001F073F9F861FB69002B03
:101B200003D0FB697A691A6305E0786901F02AFA43
:101B300001E00023FB61FB69002B13D0FA8800232E
:101B40000393FB690293FB6A0193BB6A00933B68B2
:101B5000B968F86800F00EF8F86900F089F8012318
:101B6000BB6102E04FF0FF33BB61BB691846203711
:101B7000BD4680BD80B588B000AFF860B9607A60BE
:101B80003B603B6B1A6B7B6803F18043013B9B001E
:101B90001344BB61BB6923F00703BB61BB6903F05E
:101BA0000703002B09D04FF0500383F31188BFF3D4
:101BB0006F8FBFF34F8F7B61FEE70023FB6112E065
:101BC000BA68FB69134419783A6BFB6913443433E0
:101BD0000A461A70BA68FB6913441B78002B06D0BA
:101BE000FB690133FB61FB690F2BE9D900E000BF02
:101BF0003B6B002283F84320BB6A062B01D90623E6
:101C0000BB623B6BBA6ADA623B6BBA6A5A643B6B83
:101C100000229A643B6B04331846FFF77CFA3B6B57
:101C200018331846FFF777FA3B6B3A6B1A61BB6AB9
:101C3000C3F107023B6B9A613B6B3A6B5A623B6B99
:101C40000022DA643B6B002283F850203A68F9687E
:101C5000B86900F0C3FE02463B6B1A60FB6A002BBA
:101C600002D0FB6A3A6B1A6000BF2037BD4680BDC8
:101C700080B582B000AF786000F0B2FF2A4B1B68DD
:101C80000133294A1360294B1B68002B09D1274ACD
:101C90007B681360244B1B68012B10D100F05AFCA9
:101CA0000DE0234B1B68002B09D1204B1B68DA6A1F
:101CB0007B68DB6A9A4202D81C4A7B6813601D4B22
:101CC0001B6801331B4A13607B68DB6A01229A4060
:101CD000194B1B681343184A13607B68DA6A134672
:101CE0009B0013449B00154A1A447B680433194631
:101CF0001046FFF71DFA00F0A1FF0D4B1B68002BEB
:101D00000ED00A4B1B68DA6A7B68DB6A9A4207D2FC
:101D10000B4B4FF080521A60BFF34F8FBFF36F8FA2
:101D200000BF0837BD4680BD2C0100202C000020DC
:101D3000380100204801002034010020300000203C
:101D400004ED00E080B584B000AF78600023FB6054
:101D50007B68002B16D0134B1B68002B09D04FF06B
:101D6000500383F31188BFF36F8FBFF34F8FBB60B6
:101D7000FEE700F003F90021786800F0C9FD00F0EB
:101D80000BF9F860FB68002B07D1074B4FF080522E
:101D90001A60BFF34F8FBFF36F8F00BF1037BD4680
:101DA00080BD00BF5401002004ED00E080B584B088
:101DB00000AF786000F014FF7B68002B02D1074B66
:101DC0001B6800E07B68FB60FB68DB6ABB6000F0BF
:101DD00035FFBB6818461037BD4680BD2C0000207B
:101DE00080B584B000AF786000F0FAFE7B68002B0D
:101DF00002D1374B1B6800E07B68FB60FB68043353
:101E00001846FFF7F2F90346002B15D1FB68DA6A92
:101E1000304913469B0013449B000B441B68002B66
:101E20000AD1FB68DB6A012202FA03F3DA432A4B88
:101E30001B681340284A1360FB689B6A002B04D080
:101E4000FB6818331846FFF7D0F9FB6804331946CE
:101E50002248FFF76DF900F0F1FE214B1B68002BC3
:101E600005D000F0BDFE00F001FC00F0E7FE184BCD
:101E70001B68FA689A4226D1194B1B68002B16D0B2
:101E8000184B1B68002B09D04FF0500383F31188C7
:101E9000BFF36F8FBFF34F8FBB60FEE7124B4FF066
:101EA00080521A60BFF34F8FBFF36F8F0BE00B4B65
:101EB0001A680E4B1B689A4203D1054B00221A6028
:101EC00001E000F0C1F900BF1037BD4680BD00BF82
:101ED0002C000020300000203401002018010020D8
:101EE000380100205401002004ED00E02C01002006
:101EF00080B586B002AF1B4B0193002300930023F3
:101F0000802219491948FFF7F4FDF860FB68012B9E
:101F100015D14FF0500383F31188BFF36F8FBFF3D8
:101F20004F8FBB60124B4FF0FF321A60114B0122F2
:101F30001A60114B00221A6000F0C6FD0DE0FB682C
:101F4000B3F1FF3F09D14FF0500383F31188BFF382
:101F50006F8FBFF34F8F7B60FEE700BF1037BD462A
:101F600080BD00BF50010020BC37000825250008B7
:101F70004C010020380100203001002080B400AF67
:101F8000044B1B680133034A136000BFBD465DF874
:101F9000047B70475401002080B584B000AF00235B
:101FA000FB600023BB60414B1B68002B09D14FF045
:101FB000500383F31188BFF36F8FBFF34F8F3B60E4
:101FC000FEE700F00DFE394B1B68013B374A1360FA
:101FD000364B1B68002B61D1354B1B68002B5DD045
:101FE0002EE0344BDB68DB68FB60FB681833184677
:101FF000FFF7FBF8FB6804331846FFF7F6F8FB68B9
:10200000DB6A01229A402C4B1B6813432A4A136057
:10201000FB68DA6A13469B0013449B00274A1A4464
:10202000FB68043319461046FFF782F8FB68DA6A4A
:10203000234B1B68DB6A9A4202D3224B01221A60AF
:102040001C4B1B68002BCCD1FB68002B01D000F08F
:102050000DFB1D4B1B687B607B68002B10D000F0D4
:1020600037F80346002B02D0164B01221A607B681A
:10207000013B7B607B68002BF1D1134B00221A607F
:10208000104B1B68002B09D00123BB600F4B4FF096
:1020900080521A60BFF34F8FBFF36F8F00F0CEFDF9
:1020A000BB6818461037BD4680BD00BF54010020F4
:1020B0002C010020EC000020340100203000002022
:1020C0002C000020400100203C01002004ED00E035
:1020D00080B586B000AF00237B61504B1B68002B9E
:1020E00040F08C804E4B1B6801333B614C4A3B698E
:1020F00013603B69002B1FD14A4B1B681B68002BE8
:1021000009D04FF0500383F31188BFF36F8FBFF3F3
:102110004F8F3B60FEE7434B1B68FB60424B1B68E5
:10212000404A1360404AFB681360404B1B68013310
:102130003E4A136000F09AFA3D4B1B683A699A4296
:102140004DD3384B1B681B68002B01D1012300E0E5
:102150000023002B04D0364B4FF0FF321A603EE0D4
:10216000304B1B68DB68DB68BB60BB685B687B600F
:102170003A697B689A4203D22D4A7B6813602EE04D
:10218000BB6804331846FFF730F8BB689B6A002B26
:1021900004D0BB6818331846FFF727F8BB68DB6A22
:1021A00001229A40234B1B681343224A1360BB68E9
:1021B000DA6A13469B0013449B001F4A1A44BB680B
:1021C000043319461046FEF7B3FFBB68DA6A1B4BAF
:1021D0001B68DB6A9A42B4D301237B61B1E7174BDA
:1021E0001B68DA6A144913469B0013449B000B4496
:1021F0001B68012B07D901237B6104E0104B1B688E
:1022000001330F4A13600F4B1B68002B01D00123D1
:102210007B617B6918461837BD4680BD540100209C
:1022200030010020E4000020E800002044010020EC
:102230004C01002034010020300000202C00002040
:102240003C0100204001002080B487B000AF264B45
:102250001B68002B03D0254B01221A603EE0234B64
:1022600000221A60224B1B68FB60FB68B3FA83F301
:10227000FB72FB7AC3F11F037B611E497A69134627
:102280009B0013449B000B441B68002B09D14FF0AB
:10229000500383F31188BFF36F8FBFF34F8F7B60C1
:1022A000FEE77A6913469B0013449B00114A1344CE
:1022B0003B613B695B685A683B695A603B695A6895
:1022C0003B6908339A4204D13B695B685A683B69B1
:1022D0005A603B695B68DB68074A136000BF1C37C4
:1022E000BD465DF8047B704754010020400100208A
:1022F00034010020300000202C00002080B584B084
:1023000000AF786039607B68002B09D14FF0500333
:1023100083F31188BFF36F8FBFF34F8FFB60FEE72E
:10232000074B1B68183319467868FEF725FF012113
:10233000386800F0EDFA00BF1037BD4680BD00BF21
:102340002C00002080B586B000AF78607B68DB6829
:10235000DB683B613B69002B09D14FF0500383F3ED
:102360001188BFF36F8FBFF34F8FFB60FEE73B69B0
:1023700018331846FEF739FF1D4B1B68002B1CD184
:102380003B6904331846FEF730FF3B69DB6A0122E4
:102390009A40184B1B681343164A13603B69DA6A6C
:1023A00013469B0013449B00134A1A443B690433B1
:1023B00019461046FEF7BCFE05E03B691833194686
:1023C0000E48FEF7B5FE3B69DA6A0D4B1B68DB6A07
:1023D0009A4205D901237B610A4B01221A6001E070
:1023E00000237B617B6918461837BD4680BD00BF5E
:1023F000540100203401002030000020EC000020B7
:102400002C0000204001002080B485B000AF78602F
:102410007B68002B09D14FF0500383F31188BFF381
:102420006F8FBFF34F8FFB60FEE7074B1A687B6827
:102430001A60064B1A687B685A6000BF1437BD46A5
:102440005DF8047B704700BF44010020300100208C
:1024500080B586B000AF786039607B68002B09D109
:102460004FF0500383F31188BFF36F8FBFF34F8F8B
:10247000FB60FEE73B68002B09D14FF0500383F36C
:102480001188BFF36F8FBFF34F8FBB60FEE700F083
:10249000A7FB1C4B1B683B613B681B68B3F1FF3F0C
:1024A00002D100237B6126E07B681A68164B1B680B
:1024B0009A4207D07B685A683B699A4202D8012346
:1024C0007B6118E07B685B683A69D21A3B681B68DD
:1024D0009A420ED23B681A687B6859683B69CB1AEE
:1024E0001A443B681A607868FFF78EFF00237B610F
:1024F00001E001237B6100F0A1FB7B6918461837DE
:10250000BD4680BD300100204401002080B400AFF2
:10251000034B01221A6000BFBD465DF8047B704783
:102520004001002080B582B000AF786000F052F822
:10253000064B1B68012BF9D9054B4FF080521A60EE
:10254000BFF34F8FBFF36F8FF0E700BF3000002065
:1025500004ED00E080B582B000AF00237B600CE0AA
:102560007A6813469B0013449B00124A1344184692
:10257000FEF7B1FD7B6801337B607B68062BEFD9EA
:102580000D48FEF7A8FD0D48FEF7A5FD0C48FEF727
:10259000A2FD0C48FEF79FFD0B48FEF79CFD0B4B80
:1025A000054A1A600A4B054A1A6000BF0837BD4643
:1025B00080BD00BF30000020BC000020D000002003
:1025C000EC0000200001002018010020E4000020A1
:1025D000E800002080B582B000AF28E0FFF7CEFC15
:1025E000174B1B68002B0CBF01230023DBB27B6061
:1025F000FFF7D2FC7B68002B19D100F0F1FA104BE9
:10260000DB68DB683B603B6804331846FEF7EDFD92
:102610000C4B1B68013B0B4A13600B4B1B68013BC7
:10262000094A136000F00AFB386800F00FF8064B07
:102630001B68002BD2D100BF0837BD4680BD00BF4C
:10264000000100202C0100201401002080B582B080
:1026500000AF78607B681B6B184600F093FC7868CD
:1026600000F090FC00BF0837BD4680BD80B483B049
:1026700000AF0F4B1B681B68002B01D1012300E04A
:102680000023002B04D00B4B4FF0FF321A6008E000
:10269000074B1B68DB68DB687B607B685B68054A0F
:1026A000136000BF0C37BD465DF8047B704700BF68
:1026B000E40000204C01002080B483B000AF0B4B3D
:1026C0001B68002B02D101237B6008E0084B1B68CC
:1026D000002B02D102237B6001E000237B607B683A
:1026E00018460C37BD465DF8047B70473801002062
:1026F0005401002080B584B000AF78607B68FB6037
:102700007B68002B62D0FB68DA6A324B1B68DB6A9D
:102710009A425BD2FB689B69002B06DB2D4B1B6842
:10272000DB6AC3F10702FB689A61FB685969FB68C1
:10273000DA6A13469B0013449B00274A13449942CC
:1027400001D1012300E00023002B3AD0FB680433C1
:102750001846FEF74AFD0346002B15D1FB68DA6ADE
:102760001D4913469B0013449B000B441B68002B20
:102770000AD1FB68DB6A012202FA03F3DA43174B42
:102780001B681340154A1360124B1B68DA6AFB681A
:10279000DA62FB68DB6A01229A40104B1B68134324
:1027A0000E4A1360FB68DA6A13469B0013449B00D1
:1027B000094A1A44FB68043319461046FEF7B8FC70
:1027C00004E0044B1B68DA6AFB68DA6200BF10376A
:1027D000BD4680BD2C0000203000002034010020C8
:1027E00080B586B000AF78607B683B6100237B6179
:1027F0007B68002B6CD0394B1B683A699A4209D030
:102800004FF0500383F31188BFF36F8FBFF34F8FE7
:10281000FB60FEE73B699B6C002B09D14FF0500336
:1028200083F31188BFF36F8FBFF34F8FBB60FEE759
:102830003B699B6C5A1E3B699A643B69DA6A3B6947
:102840005B6C9A4244D03B699B6C002B40D13B6946
:1028500004331846FEF7C9FC0346002B15D13B692B
:10286000DA6A1F4913469B0013449B000B441B6804
:10287000002B0AD13B69DB6A012202FA03F3DA4337
:10288000184B1B681340174A13603B695A6C3B692D
:10289000DA623B69DB6AC3F107023B699A613B6913
:1028A000DB6A01229A400F4B1B6813430D4A1360E9
:1028B0003B69DA6A13469B0013449B00084A1A449A
:1028C0003B69043319461046FEF732FC01237B6155
:1028D0007B6918461837BD4680BD00BF2C0000201C
:1028E000300000203401002080B400AF074B1B688B
:1028F000002B04D0054B1B689A6C01329A64034B81
:102900001B681846BD465DF8047B70472C0000200C
:1029100080B584B000AF78603960294B1B68FB60DC
:10292000284B1B6804331846FEF75FFC0346002B58
:102930000BD1244B1B68DB6A012202FA03F3DA4352
:10294000214B1B681340204A13607B68B3F1FF3FA3
:102950000AD13B68002B07D01A4B1B680433194679
:102960001A48FEF7E5FB26E0FA687B681344BB6073
:10297000144B1B68BA685A60BA68FB689A4209D25D
:10298000134B1A680F4B1B68043319461046FEF7A9
:10299000F3FB10E00F4B1A680A4B1B68043319460F
:1029A0001046FEF7E9FB0C4B1B68BA689A4202D24C
:1029B000094ABB68136000BF1037BD4680BD00BF29
:1029C000300100202C0000203401002018010020DC
:1029D000E8000020E40000204C01002080B485B015
:1029E00000AFF860B9607A60FB68043BFB60FB688D
:1029F0004FF080721A60FB68043BFB60BB6823F0F9
:102A00000102FB681A60FB68043BFB600C4AFB6830
:102A10001A60FB68143BFB607A68FB681A60FB680D
:102A2000043BFB60FB686FF002021A60FB68203B0E
:102A3000FB60FB6818461437BD465DF8047B7047A1
:102A4000452A000880B483B000AF0C4B1B68B3F17B
:102A5000FF3F09D04FF0500383F31188BFF36F8F0E
:102A6000BFF34F8F7B60FEE74FF0500383F3118875
:102A7000BFF36F8FBFF34F8F3B60FEE7080000206E
:102A8000074B19680868B0E8F04F80F30988BFF376
:102A90006F8F4FF0000080F311887047AFF3008014
:102AA0002C00002000BF00BF06480068006880F3CB
:102AB000088862B661B6BFF34F8FBFF36F8F00DF38
:102AC00000BF00BF08ED00E080B586B000AF3B4B13
:102AD0001B683B4A934209D14FF0500383F311889E
:102AE000BFF36F8FBFF34F8F3B61FEE7334B1B6824
:102AF000344A934209D14FF0500383F31188BFF356
:102B00006F8FBFF34F8FFB60FEE72F4B7B617B69BD
:102B10001B78DBB2BB607B69FF221A707B691B7874
:102B2000DBB2FB71FB79DBB203F05003DAB2274B67
:102B30001A70274B07221A6009E0254B1B68013BDE
:102B4000234A1360FB79DBB25B00DBB2FB71FB79DC
:102B5000DBB203F08003802BEFD01D4B1B681B0200
:102B60001B4A13601A4B1B6803F4E063184A136096
:102B7000BB68DAB27B691A70164A164B1B6843F4BD
:102B800070031360134A134B1B6843F070431360C8
:102B900000F0D2F8104B00221A6000F0E9F80F4A5A
:102BA0000E4B1B6843F040431360FFF77DFFFFF7B8
:102BB00049FF002318461837BD4680BD00ED00E0F0
:102BC00071C20F4170C20F4100E400E058010020C3
:102BD0005C01002020ED00E00800002034EF00E060
:102BE00080B483B000AF4FF0500383F31188BFF37C
:102BF0006F8FBFF34F8F7B600E4B1B6801330D4A05
:102C000013600C4B1B68012B0ED10B4B1B68DBB206
:102C1000002B09D04FF0500383F31188BFF36F8F5F
:102C2000BFF34F8F3B60FEE700BF0C37BD465DF83A
:102C3000047B70470800002004ED00E080B483B0FE
:102C400000AF114B1B68002B09D14FF0500383F3E9
:102C50001188BFF36F8FBFF34F8F7B60FEE70A4B86
:102C60001B68013B084A1360074B1B68002B04D10B
:102C700000233B603B6883F3118800BF0C37BD46DF
:102C80005DF8047B704700BF0800002000000000D2
:102C9000EFF30980BFF36F8F154B1A681EF0100F0A
:102CA00008BF20ED108A20E9F04F10604DF8043D78
:102CB0004FF0500080F31188BFF34F8FBFF36F8F39
:102CC000FFF7C2FA4FF0000080F3118808BC1968C2
:102CD0000868B0E8F04F1EF0100F08BFB0EC108A83
:102CE00080F30988BFF36F8F704700BFAFF3008098
:102CF0002C00002000BF00BF80B582B000AF4FF0B5
:102D0000500383F31188BFF36F8FBFF34F8F7B6046
:102D1000FFF7DEF90346002B03D0064B4FF080523D
:102D20001A6000233B603B6883F3118800BF0837BB
:102D3000BD4680BD04ED00E080B400AF084A094BF9
:102D40001B680949A1FB03139B09013B1360074B57
:102D500007221A6000BFBD465DF8047B704700BFC4
:102D600014E000E00C000020D34D621010E000E001
:102D7000DFF80C00016841F470010160704700BF8A
:102D800088ED00E080B485B000AFEFF30583FB6011
:102D9000FB680F2B13D9164AFB6813441B78FB7290
:102DA000144B1B78FA7A9A4209D24FF0500383F3FE
:102DB0001188BFF36F8FBFF34F8F7B60FEE70E4B21
:102DC0001B6803F4E0620D4B1B689A4209D94FF06F
:102DD000500383F31188BFF36F8FBFF34F8F3B60B6
:102DE000FEE700BF1437BD465DF8047B704700BFA7
:102DF000F0E300E0580100200CED00E05C01002051
:102E000080B58AB000AF78600023FB61FFF7B6F8A9
:102E1000574B1B68002B01D100F00CF9554B1A6879
:102E20007B681340002B40F08C807B68002B1CD00B
:102E300008227B6813447B607B6803F00703002B48
:102E400013D07B6823F0070308337B607B6803F0B3
:102E50000703002B09D04FF0500383F31188BFF311
:102E60006F8FBFF34F8F7B61FEE77B68002B68D0CD
:102E7000414B1B687A689A4263D8404B3B623F4B98
:102E80001B687B6204E07B6A3B627B6A1B687B6237
:102E90007B6A5A687B689A4203D27B6A1B68002B64
:102EA000F1D1334B1B687A6A9A424AD03B6A1B685D
:102EB00008221344FB617B6A1A683B6A1A607B6ACA
:102EC0005A687B68D21A08235B009A421ED97A6A34
:102ED0007B681344BB61BB6903F00703002B09D077
:102EE0004FF0500383F31188BFF36F8FBFF34F8F01
:102EF0003B61FEE77B6A5A687B68D21ABB695A60FD
:102F00007B6A7A685A60B86900F0F6F81A4B1A685A
:102F10007B6A5B68D31A184A1360174B1A68184B00
:102F20001B689A4203D2144B1B68154A13607B6AD4
:102F30005A68104B1B681A437B6A5A607B6A0022EE
:102F40001A60FFF729F8FB6903F00703002B09D08B
:102F50004FF0500383F31188BFF36F8FBFF34F8F90
:102F6000FB60FEE7FB6918462837BD4680BD00BF01
:102F7000683D0020743D00206C3D0020603D002035
:102F8000703D002080B586B000AF78607B687B61C3
:102F90007B68002B46D008235B427A6913447B612F
:102FA0007B693B613B695A68204B1B681340002BCF
:102FB00009D14FF0500383F31188BFF36F8FBFF334
:102FC0004F8FFB60FEE73B691B68002B09D04FF079
:102FD000500383F31188BFF36F8FBFF34F8FBB6034
:102FE000FEE73B695A68114B1B681340002B19D050
:102FF0003B691B68002B15D13B695A680B4B1B685A
:10300000DB431A403B695A60FEF7B8FF3B695A68D8
:10301000074B1B681344064A1360386900F06CF8CC
:10302000FEF7BAFF00BF1837BD4680BD743D0020D3
:103030006C3D002080B485B000AF4FF47053BB608E
:10304000274BFB60FB6803F00703002B0CD0FB68E9
:103050000733FB60FB6823F00703FB60BA68FB687B
:10306000D31A1F4A1344BB60FB687B601D4A7B6810
:1030700013601C4B00225A607A68BB681344FB60E3
:103080000822FB689B1AFB60FB6823F00703FB60C8
:10309000FB68154A1360144B1B6800225A60124BE0
:1030A0001B6800221A607B683B603B68FA68D21A92
:1030B0003B685A600C4B1A683B681A603B685B6857
:1030C0000A4A13603B685B68094A1360094B4FF07A
:1030D00000421A6000BF1437BD465DF8047B70479C
:1030E00060010020603D0020683D0020703D002010
:1030F0006C3D0020743D002080B485B000AF786046
:10310000284BFB6002E0FB681B68FB60FB681A68E9
:103110007B689A42F7D3FB68BB60FB685B68BA6860
:103120001A447B689A4208D1FB685A687B685B68DE
:103130001A44FB685A60FB687B607B68BB607B68F5
:103140005B68BA681A44FB681B689A4218D1FB682E
:103150001A68154B1B689A420DD07B685A68FB6849
:103160001B685B681A447B685A60FB681B681A68B6
:103170007B681A6008E00C4B1A687B681A6003E0F1
:10318000FB681A687B681A60FA687B689A4202D00A
:10319000FB687A681A6000BF1437BD465DF8047B8F
:1031A000704700BF603D0020683D002080B582B0C0
:1031B00002AFFDF7BBF900F027F900F0A7F90023F3
:1031C0000193022300930023802212491248FEF744
:1031D00090FC0023019302230093002380220F49D7
:1031E0000F48FEF786FC002208210A20FEF790F81F
:1031F00002460C4B1A60002204210A20FEF788F8D0
:103200000246094B1A60094B01221A60FEF770FE54
:10321000FEE700BFC437000831320008CC37000891
:10322000C5320008303E0020243E0020783D0020BA
:1032300080B584B002AF7860184B019302230093ED
:103240000023802216491748FEF753FC164B0193C2
:10325000022300930023802214491548FEF749FCFD
:10326000144B1B680133134A1360124B1B68B3F5F0
:103270007A7F02DD0F4B00221A600E4B1B681A4644
:103280000D4B1A600D4B186800234FF47A720A49EF
:10329000FEF796F802460A4B1A60E1E72C3E002042
:1032A000D4370008493300083C3E0020DC370008D2
:1032B000713300087C3D0020803D0020303E00201E
:1032C000883D002080B584B000AF7860184B1B6843
:1032D0000133174A1360164B1B68B3F57A7F02DD82
:1032E000134B00221A60134B1868134B1B689B008A
:1032F000124A991800234FF47A72FEF75BF90246DE
:103300000F4B1A600E4B1B68012B0AD10A4B1B682E
:10331000082B03DC084B1B68013300E00023064A3E
:103320001360084B1B681846FEF740FDF860CDE7B8
:103330008C3D0020303E0020903D0020943D002038
:10334000BC3D00202C3E002080B483B000AF7860EC
:10335000064B1B680133054A1360044B1B68B3F529
:103360007A7FF5D9014B00221A60F1E7C03D0020B9
:1033700080B582B000AF78601E4B1B68B3F57A7FD2
:1033800007D21C4B1B6801331A4A1360194B1B6888
:1033900000E00023174A1360164B1B68002B04D172
:1033A000154B1B681846FEF71BFD144B1B68114A92
:1033B0001268134941F82320124B18680F4B1B6801
:1033C0009B000F4A991800236422FDF7F9FF0B4B6D
:1033D0001B68082B07D8094B1B680133074A136089
:1033E000064B1B6800E00023044A13600A20FEF726
:1033F000A9FCC1E7C43D00202C3E0020C83D0020B0
:10340000CC3D0020243E002080B594B000AF0023C6
:10341000BB603A4A394B1B6C43F080531364374B03
:103420001B6C03F08053BB60BB6800237B60344A95
:10343000334B1B6843F440431360314B1B6803F468
:1034400040437B607B6801233B624FF480337B62A7
:103450000223BB634FF48003FB6304233B64B42368
:103460007B640223BB640423FB6407F1200318463A
:10347000FDF71EFA0346002B04D04FF49F7121483C
:1034800000F05EF8FDF7C4F90346002B04D040F2CB
:1034900045111C4800F054F80F23FB6002233B61E8
:1034A00000237B614FF4A053BB614FF48053FB6159
:1034B00007F10C0305211846FDF73CFC0346002BE1
:1034C00004D040F253110F4800F03AF8FDF7ECFD3C
:1034D00002460D4BA3FB02239B091846FDF76FF92B
:1034E0000420FDF779F900220F214FF0FF30FDF79E
:1034F0004AF900BF5037BD4680BD00BF00380240CA
:1035000000700040E4370008D34D621080B483B0EF
:1035100000AF00237B60094A084B1B6B43F080031C
:103520001363064B1B6B03F080037B607B6800BF5B
:103530000C37BD465DF8047B704700BF0038024081
:1035400080B483B000AF78603960FEE780B582B0A8
:1035500000AF00237B60254A244B5B6C43F480431F
:103560005364224B5B6C03F480437B607B680023D5
:103570003B601E4A1D4B1B6C43F0805313641B4B76
:103580001B6C03F080533B603B680320FDF7F0F8B1
:10359000002200216FF00B00FDF7F5F8002200215A
:1035A0006FF00A00FDF7EFF8002200216FF009002C
:1035B000FDF7E9F8002200216FF00400FDF7E3F8C1
:1035C000002200216FF00300FDF7DDF800220F213B
:1035D0006FF00100FDF7D7F800220F214FF0FF3008
:1035E000FDF7D1F800BF0837BD4680BD0038024066
:1035F00080B400AF00BFBD465DF8047B704780B467
:1036000000AFFEE780B400AFFEE780B400AFFEE796
:1036100080B400AFFEE780B400AF00BFBD465DF8E8
:10362000047B704780B500AFFCF7D2FFFDF748FD83
:10363000104B1B68012B1AD10F4B18680F4B1B68DE
:103640009B000F4A13444FF47A721946FEF7C4F8F0
:103650000A4B1B68082B07DC084B1B680133074A21
:103660001360064B1B6800E00023044A136000BF90
:1036700080BD00BF783D0020243E0020F43D0020A6
:10368000F83D002080B400AF164A164BD3F88830BE
:1036900043F47003C2F88830134A134B1B6843F09D
:1036A00001031360104B00229A600F4A0E4B1B68F7
:1036B00023F0847323F4803313600B4B0B4A5A605E
:1036C000094A094B1B6823F480231360064B002230
:1036D000DA60044B4FF000629A6000BFBD465DF8AF
:1036E000047B704700ED00E00038024010300024F9
:1036F000DFF834D0002103E00C4B5B584350043119
:103700000B480C4B42189A42F6D30B4A02E00023B6
:1037100042F8043B094B9A42F9D3FFF7B3FF00F09C
:1037200011F8FFF743FD7047000003201C38000824
:10373000000000201000002010000020403E00206B
:10374000FEE7000070B50D4E0D4CA41BA410002523
:10375000A54209D10B4E0C4C00F024F8A41BA41078
:103760000025A54205D170BD56F825309847013592
:10377000EEE756F8253098470135F2E7143800088F
:1037800014380008143800081838000810B5431E13
:103790000A44914200D110BD11F8014B03F8014FCA
:1037A000F7E70000F8B500BFF8BC08BC9E467047BC
:0C37B000F8B500BFF8BC08BC9E4670478E
:1037BC0049444C45000000007461736B20310000DB
:1037CC007461736B203200007461736B20330000E2
:1037DC007461736B203400002E2E2F5372632F6D87
:1037EC0061696E2E63000000000000000000000004
:1037FC00010203040607080900000000010203048B
:08380C0040CAFF7F010000002B
:04381400D5010008D2
:04381800B1010008F2
:10381C001000000001000000AAAAAAAA0024F400CB
:04000005080036F1C8
:00000001FF
